:020000040800F2
:1000000010040020050100082B0B000875090008EA
:10001000290B000871010008FF0B00080000000018
:100020000000000000000000000000002F0B00088E
:1000300073010008000000002D0B0008A90B000848
:100040001F0100081F0100081F0100081F01000810
:100050001F0100081F0100081F0100081F01000800
:100060001F0100081F0100081F0100081F010008F0
:100070001F0100081F0100081F0100081F010008E0
:100080001F0100081F0100081F0100081F010008D0
:100090001F0100081F0100081F0100081F010008C0
:1000A0001F0100081F0100081F0100081F010008B0
:1000B0001F0100081F0100081F0100081F010008A0
:1000C0001F0100081F0100081F0100081F01000890
:1000D0001F0100081F0100081F0100081F01000880
:1000E0001F0100081F0100081F010008DFF810D0E1
:1000F00000F02CF800480047410C0008AFF30080E6
:10010000100400200648804706480047FEE7FEE747
:10011000FEE7FEE7FEE7FEE7FEE7FEE7FEE7FEE7B7
:10012000FD0B0008ED000008D2B201E000F8012B41
:10013000491EFBD270470022F6E710B513460A4667
:1001400004461946FFF7F0FF204610BD064C074D48
:1001500006E0E06840F0010394E807009847103497
:10016000AC42F6D3FFF7C6FF840C0008A40C0008CD
:10017000FEE7704770B5044600F0FAF80546601CCB
:1001800002D004480078044400F0F2F8401BA0427A
:10019000FAD370BD000000202DE9F84FDFF8A491DC
:1001A000002409F1040A0AF1040B23464FF00F085A
:1001B0000BF1040EBEE00127A7403A40BA4272D1CB
:1001C000DFF884C14D68A5EB0C0665452BD00DDC2E
:1001D000032D34D005DC35B3012D19D0022D2FD1DC
:1001E0001BE0112D16D0122D2AD119E0B6F5881F6B
:1001F00019D006DCB6F5803F15D0B6F5801F1FD1AB
:1002000011E0B6F5001F0ED0B6F5041F18D10AE0B4
:10021000CB6815E0CB681B1D12E0CB6808330FE0FC
:10022000CB680C330CE08B682BB1012B4FF008032B
:1002300003D0476104E0042302E0076100E00023EB
:10024000FF2A01D8064601E000F104064FEA8405C2
:1002500001D9A5F12005376808FA05FC27EA0C0743
:1002600003FA05F547EA050737604D68ED0060D5EC
:10027000364DAE6946F00106AE61AD6924F0030665
:1002800005F001050095324D7719BE68A5072D0FC1
:1002900008FA05FC26EA0C06DFF8B8C0604503D171
:1002A0004FF0000C17E044E0DFF8ACC0604502D12D
:1002B0004FF0010C0FE0DFF8A4C0604502D14FF011
:1002C000020C08E0DFF898C0604502D14FF0030C43
:1002D00001E04FF0040C0CFA05FC4CEA060CC7F8E0
:1002E00008C04D68D9F80060ED034D4601D51643AE
:1002F00000E096432E604D68DAF80060AD03554685
:1003000001D5164300E096432E604D68DBF800608F
:10031000ED025D4601D5164300E096432E604D6820
:10032000DEF80060AD02754601D5164300E0964345
:100330002E60641C0A6832FA04F57FF43CAFBDE815
:10034000F88F00000004014000001110001002406E
:100350000000014000080140000C01400010014075
:10036000001401400AB1016170470904FBE7000075
:100370000148806870470000000000200248816842
:10038000027811448160704700000020074810B5D2
:10039000016841F010010160032000F067F80020BF
:1003A00000F006F800F024F8002010BD0020024004
:1003B00070B50D4D04464FF47A712878B1FBF0F01A
:1003C0000A490968B1FBF0F000F0C0FA48B9102CF6
:1003D00007D200222146501E00F028F800206C6051
:1003E00070BD012070BD0000000000200C00002046
:1003F0000C4808B5816941F001018161816901F012
:1004000001010091C16941F08051C161C069064993
:1004100000F080500090486820F0E06040F00070EC
:10042000486008BD0010024000000140F0B40E4BCF
:100430001B68C3F30223C3F10704042C00D904246E
:100440001D1D072D01D2002300E0DB1E012606FA48
:1004500004F56D1E0D409D409E40761E164045EAF7
:100460000601F0BC00F0CCBB0CED00E0064A00F049
:10047000070110684FF6FF03184040EA01200349C6
:1004800008431060704700000CED00E00000FA0522
:100490002DE9F0470D46040067D0DFF81881D8F841
:1004A000000000F00700A8420CD2D8F8001021F09C
:1004B00007012943C8F80010D8F8000000F0070031
:1004C000A84252D120683C4E810712D5400703D57F
:1004D000706840F4E06070602078000703D57068B1
:1004E00040F4605070607068A16820F0F00008432C
:1004F00070602078C00727D06068012810D031686C
:10050000022810D0890700292FDA716821F0030131
:1005100001437160FFF72CFF074641F288390CE078
:1005200031688903EFE78901EDE7FFF721FFC11B80
:10053000494502D90320BDE8F0877068616800F082
:100540000C00B0EB810FF0D1D8F80010404601F05C
:100550000701A9420BD9016821F007012943016075
:10056000006800F00700A84201D00120E3E72078EE
:10057000400705D57068E16820F4E06008437060CA
:100580002078000706D57068216920F4605040EAA1
:10059000C100706000F018F87168084AC1F30311D7
:1005A000515CC8400649086006480068FFF700FF34
:1005B0000020C0E70020024000100240740C000838
:1005C0000C0000200400002012A085B00FC88DE8A8
:1005D0000F0014A0144B006804905968134801F0F0
:1005E0000C02042A10D0082A0ED1C1F38342C90399
:1005F0001DF802000AD5596804AAC1F34041515CB4
:100600000A4A5043B0FBF1F005B07047084948432F
:10061000FAE7000002030405060708090A0B0C0D9F
:100620000E0F1010010200000010024000127A00AC
:1006300000093D002DE9F84F04006FD02078BE4D31
:10064000C00747D06868C0F38100012807D06868F8
:10065000C0F38100022809D16868C00306D5286864
:10066000800337D560680028E7D033E06068B0F5D4
:10067000803F0BD010B1B0F5A02F11D0286820F426
:1006800080302860286820F4802002E0286840F448
:1006900080302860606888B1FFF76AFE064609E08E
:1006A000286840F480202860F0E7FFF761FE801B97
:1006B000642873D828688003F7D50BE0FFF758FE4D
:1006C000064604E0FFF754FE801B6428F1D8286832
:1006D0008003F7D42078DFF8648280074FF0010AA6
:1006E0004FF0000939D5686810F00C0F07D0686822
:1006F000C0F38100022809D16868C00306D42868C5
:10070000800714D52069012808D110E02069B0B114
:10071000C8F800A0FFF72CFE064605E007E1FFF74A
:1007200027FE801B0228C4D828688007F7D52868D0
:10073000616920F0F80040EAC10028600DE0C8F8C7
:100740000090FFF715FE064604E0FFF711FE801B40
:10075000022823D828688007F7D4207800072CD5F2
:100760007748A169D9B1C0F800A0FFF701FE06469D
:1007700004E0FFF7FDFD801B02280FD8686A8007A0
:10078000F7D570484FF4FA510068B0FBF1F00090D3
:1007900000BF0098411E0091FAD20EE07CE0C0F844
:1007A0000090FFF7E5FD064604E0FFF7E1FD801B42
:1007B000022871D8686A8007F7D4207840075BD593
:1007C000E8690027C00008D4E86940F08050E8617B
:1007D000E869012700F0805000905B480168C90576
:1007E00011D40168834641F480710160FFF7C0FDB8
:1007F000064604E0FFF7BCFD801B64284CD8DBF8FC
:100800000000C005F6D5E06801280AD008B1052827
:1008100013D0286A20F001002862286A20F0040022
:1008200002E0286A40F001002862E06841F2883B5B
:1008300088B1FFF79DFD064609E0286A40F00400F4
:100840002862EEE7FFF794FD811B59455BD8286AC3
:100850008007F7D50BE0FFF78BFD064604E0FFF7B6
:1008600087FD811B59454ED8286A8007F7D41FB1F0
:10087000E86920F08050E861E069A8B36968C1F3D5
:100880008101022946D00228484606D0C8F86000F7
:10089000FFF76EFD044639E035E04746C8F86000D2
:1008A000FFF766FD064604E0FFF762FD801B0228A5
:1008B00029D828688001F7D4206AB0F5803F05D197
:1008C0006868A16820F4003008436860D4E9080132
:1008D0000843696821F4741108436860C7F860A090
:1008E000FFF746FD044605E023E0FFF741FD001B4E
:1008F000022808D828688001F7D51AE0FFF738FDEC
:10090000001B022802D90320BDE8F88F2868800167
:10091000F4D40EE00128F7D06868226A00F4803130
:10092000914204D1616A00F47010884201D0012024
:10093000EAE70020E8E70000001002400000424221
:10094000800442420C0000200070004010B5401EA0
:10095000B0F1807F01D3012010BD4FF0E024606131
:100960000F21601700F04CF90020A06107202061E2
:10097000002010BDFEE710B50124012901D8272869
:1009800001D9002406E000EB8110C0B240F08000E5
:1009900000F057F8204610BD10B50E2000F04AF8C0
:1009A0000C2000F047F80120FFF7E4FB0E2000F0D8
:1009B00041F80C2000F03EF80120FFF7DBFB0E2091
:1009C00000F038F80C2000F035F80120FFF7D2FBDA
:1009D000022000F036F8062000F033F8282000F05E
:1009E00030F8BDE810400E2000F02BB82DE9F041A2
:1009F00007460409032505EB840000F01BF80126D7
:100A000006EB840000F016F807F00F0405EB8400F5
:100A100000F010F806EB8400BDE8F04100F00AB8E1
:100A200010B5044602E0FFF7E1FF641C20780028BF
:100A3000F9D110BD10B500F07BF8BDE8104000F012
:100A40009DB870B505460409022606EB8400FFF741
:100A5000F1FFA000FFF7EEFF05F00F0406EB8400A6
:100A6000FFF7E8FFA000BDE87040FFF7E3BF00001C
:100A70002DE9F04186B000242748009401940294A7
:100A80000394816941F010018161816901F01001D5
:100A90000491816941F004018161816901F00401DF
:100AA0000491816941F0080181618069012200F0AF
:100AB00008001A4E5503049029463046FFF752FCB1
:100AC000174F012280213846FFF74CFCDFF8548095
:100AD000012203214046FFF745FC0220CDE90240F8
:100AE00000950125694601953046FFF755FB8020AA
:100AF000CDE9000569463846CDE90245FFF74CFBD4
:100B00000320CDE9000569464046CDE90245FFF7DF
:100B100043FB06B0BDE8F081001002400010014028
:100B200000080140000C0140FEE7FEE770477047F7
:100B30002DE9F0410F4E0446002202213046FFF716
:100B400011FC0D4F0025C4F3C01280213846FFF779
:100B500009FC012202213046FFF704FC0022022199
:100B60003046FFF7FFFB64006D1C082DEBD3BDE89A
:100B7000F0810000000C01400008014010B5094C54
:100B8000002201212046FFF7EDFB012211462046FD
:100B9000FFF7E8FB20460022BDE810400121FFF7E7
:100BA000E1BB0000000C0140FFF7E8BB10B590B0BE
:100BB00028216846FFF7BFFA14210AA8FFF7BBFAFD
:100BC000022000900120049010200024059007943A
:100BD0006846FFF72FFD08B172B6FEE70F20CDE99A
:100BE0000A040C940D9400210AA80E94FFF750FCFF
:100BF000002801D072B6FEE710B010BD7047FEE7C6
:100C00000907090E002804DB00F1E02080F8001439
:100C1000704700F00F0000F1E02080F8141D7047CD
:100C200002E008C8121F08C1002AFAD170477047B5
:100C3000002001E001C1121F002AFBD17047000013
:100C40001CB50AA0D0E90010CDE90010FFF79EFB0B
:100C5000FFF7ACFFFFF70CFFFFF79EFE012102201C
:100C6000FFF789FE6846FFF7DBFEFEE76D657373ED
:100C7000616765000000000000000000010203043D
:100C800006070809A40C000800000020100000005E
:100C9000200C0008B40C0008100000200004000024
:100CA000300C0008010000001000000000000000EF
:040CB0000024F40028
:04000005080000ED02
:00000001FF
